{
  "_format": "hh-sol-artifact-1",
  "contractName": "QERC20",
  "sourceName": "contracts/QERC20.sol",
  "abi": [
    {
      "inputs": [],
      "stateMutability": "nonpayable",
      "type": "constructor"
    },
    {
      "inputs": [],
      "name": "ECDSAInvalidSignature",
      "type": "error"
    },
    {
      "inputs": [
        {
          "internalType": "uint256",
          "name": "length",
          "type": "uint256"
        }
      ],
      "name": "ECDSAInvalidSignatureLength",
      "type": "error"
    },
    {
      "inputs": [
        {
          "internalType": "bytes32",
          "name": "s",
          "type": "bytes32"
        }
      ],
      "name": "ECDSAInvalidSignatureS",
      "type": "error"
    },
    {
      "inputs": [
        {
          "internalType": "address",
          "name": "spender",
          "type": "address"
        },
        {
          "internalType": "uint256",
          "name": "allowance",
          "type": "uint256"
        },
        {
          "internalType": "uint256",
          "name": "needed",
          "type": "uint256"
        }
      ],
      "name": "ERC20InsufficientAllowance",
      "type": "error"
    },
    {
      "inputs": [
        {
          "internalType": "address",
          "name": "sender",
          "type": "address"
        },
        {
          "internalType": "uint256",
          "name": "balance",
          "type": "uint256"
        },
        {
          "internalType": "uint256",
          "name": "needed",
          "type": "uint256"
        }
      ],
      "name": "ERC20InsufficientBalance",
      "type": "error"
    },
    {
      "inputs": [
        {
          "internalType": "address",
          "name": "approver",
          "type": "address"
        }
      ],
      "name": "ERC20InvalidApprover",
      "type": "error"
    },
    {
      "inputs": [
        {
          "internalType": "address",
          "name": "receiver",
          "type": "address"
        }
      ],
      "name": "ERC20InvalidReceiver",
      "type": "error"
    },
    {
      "inputs": [
        {
          "internalType": "address",
          "name": "sender",
          "type": "address"
        }
      ],
      "name": "ERC20InvalidSender",
      "type": "error"
    },
    {
      "inputs": [
        {
          "internalType": "address",
          "name": "spender",
          "type": "address"
        }
      ],
      "name": "ERC20InvalidSpender",
      "type": "error"
    },
    {
      "inputs": [
        {
          "internalType": "uint256",
          "name": "deadline",
          "type": "uint256"
        }
      ],
      "name": "ERC2612ExpiredSignature",
      "type": "error"
    },
    {
      "inputs": [
        {
          "internalType": "address",
          "name": "signer",
          "type": "address"
        },
        {
          "internalType": "address",
          "name": "owner",
          "type": "address"
        }
      ],
      "name": "ERC2612InvalidSigner",
      "type": "error"
    },
    {
      "inputs": [
        {
          "internalType": "address",
          "name": "account",
          "type": "address"
        },
        {
          "internalType": "uint256",
          "name": "currentNonce",
          "type": "uint256"
        }
      ],
      "name": "InvalidAccountNonce",
      "type": "error"
    },
    {
      "inputs": [],
      "name": "InvalidShortString",
      "type": "error"
    },
    {
      "inputs": [
        {
          "internalType": "string",
          "name": "str",
          "type": "string"
        }
      ],
      "name": "StringTooLong",
      "type": "error"
    },
    {
      "anonymous": false,
      "inputs": [
        {
          "indexed": true,
          "internalType": "address",
          "name": "owner",
          "type": "address"
        },
        {
          "indexed": true,
          "internalType": "address",
          "name": "spender",
          "type": "address"
        },
        {
          "indexed": false,
          "internalType": "uint256",
          "name": "value",
          "type": "uint256"
        }
      ],
      "name": "Approval",
      "type": "event"
    },
    {
      "anonymous": false,
      "inputs": [],
      "name": "EIP712DomainChanged",
      "type": "event"
    },
    {
      "anonymous": false,
      "inputs": [
        {
          "indexed": true,
          "internalType": "address",
          "name": "from",
          "type": "address"
        },
        {
          "indexed": true,
          "internalType": "address",
          "name": "to",
          "type": "address"
        },
        {
          "indexed": false,
          "internalType": "uint256",
          "name": "value",
          "type": "uint256"
        }
      ],
      "name": "Transfer",
      "type": "event"
    },
    {
      "inputs": [],
      "name": "DOMAIN_SEPARATOR",
      "outputs": [
        {
          "internalType": "bytes32",
          "name": "",
          "type": "bytes32"
        }
      ],
      "stateMutability": "view",
      "type": "function"
    },
    {
      "inputs": [
        {
          "internalType": "address",
          "name": "owner",
          "type": "address"
        },
        {
          "internalType": "address",
          "name": "spender",
          "type": "address"
        }
      ],
      "name": "allowance",
      "outputs": [
        {
          "internalType": "uint256",
          "name": "",
          "type": "uint256"
        }
      ],
      "stateMutability": "view",
      "type": "function"
    },
    {
      "inputs": [
        {
          "internalType": "address",
          "name": "spender",
          "type": "address"
        },
        {
          "internalType": "uint256",
          "name": "value",
          "type": "uint256"
        }
      ],
      "name": "approve",
      "outputs": [
        {
          "internalType": "bool",
          "name": "",
          "type": "bool"
        }
      ],
      "stateMutability": "nonpayable",
      "type": "function"
    },
    {
      "inputs": [
        {
          "internalType": "address",
          "name": "account",
          "type": "address"
        }
      ],
      "name": "balanceOf",
      "outputs": [
        {
          "internalType": "uint256",
          "name": "",
          "type": "uint256"
        }
      ],
      "stateMutability": "view",
      "type": "function"
    },
    {
      "inputs": [
        {
          "internalType": "uint256",
          "name": "value",
          "type": "uint256"
        }
      ],
      "name": "burn",
      "outputs": [],
      "stateMutability": "nonpayable",
      "type": "function"
    },
    {
      "inputs": [
        {
          "internalType": "address",
          "name": "account",
          "type": "address"
        },
        {
          "internalType": "uint256",
          "name": "value",
          "type": "uint256"
        }
      ],
      "name": "burnFrom",
      "outputs": [],
      "stateMutability": "nonpayable",
      "type": "function"
    },
    {
      "inputs": [],
      "name": "decimals",
      "outputs": [
        {
          "internalType": "uint8",
          "name": "",
          "type": "uint8"
        }
      ],
      "stateMutability": "view",
      "type": "function"
    },
    {
      "inputs": [],
      "name": "eip712Domain",
      "outputs": [
        {
          "internalType": "bytes1",
          "name": "fields",
          "type": "bytes1"
        },
        {
          "internalType": "string",
          "name": "name",
          "type": "string"
        },
        {
          "internalType": "string",
          "name": "version",
          "type": "string"
        },
        {
          "internalType": "uint256",
          "name": "chainId",
          "type": "uint256"
        },
        {
          "internalType": "address",
          "name": "verifyingContract",
          "type": "address"
        },
        {
          "internalType": "bytes32",
          "name": "salt",
          "type": "bytes32"
        },
        {
          "internalType": "uint256[]",
          "name": "extensions",
          "type": "uint256[]"
        }
      ],
      "stateMutability": "view",
      "type": "function"
    },
    {
      "inputs": [
        {
          "internalType": "address",
          "name": "account",
          "type": "address"
        },
        {
          "internalType": "uint256",
          "name": "amount",
          "type": "uint256"
        }
      ],
      "name": "mintReward",
      "outputs": [],
      "stateMutability": "nonpayable",
      "type": "function"
    },
    {
      "inputs": [],
      "name": "name",
      "outputs": [
        {
          "internalType": "string",
          "name": "",
          "type": "string"
        }
      ],
      "stateMutability": "view",
      "type": "function"
    },
    {
      "inputs": [
        {
          "internalType": "address",
          "name": "owner",
          "type": "address"
        }
      ],
      "name": "nonces",
      "outputs": [
        {
          "internalType": "uint256",
          "name": "",
          "type": "uint256"
        }
      ],
      "stateMutability": "view",
      "type": "function"
    },
    {
      "inputs": [],
      "name": "owner",
      "outputs": [
        {
          "internalType": "address",
          "name": "",
          "type": "address"
        }
      ],
      "stateMutability": "view",
      "type": "function"
    },
    {
      "inputs": [
        {
          "internalType": "address",
          "name": "owner",
          "type": "address"
        },
        {
          "internalType": "address",
          "name": "spender",
          "type": "address"
        },
        {
          "internalType": "uint256",
          "name": "value",
          "type": "uint256"
        },
        {
          "internalType": "uint256",
          "name": "deadline",
          "type": "uint256"
        },
        {
          "internalType": "uint8",
          "name": "v",
          "type": "uint8"
        },
        {
          "internalType": "bytes32",
          "name": "r",
          "type": "bytes32"
        },
        {
          "internalType": "bytes32",
          "name": "s",
          "type": "bytes32"
        }
      ],
      "name": "permit",
      "outputs": [],
      "stateMutability": "nonpayable",
      "type": "function"
    },
    {
      "inputs": [],
      "name": "symbol",
      "outputs": [
        {
          "internalType": "string",
          "name": "",
          "type": "string"
        }
      ],
      "stateMutability": "view",
      "type": "function"
    },
    {
      "inputs": [],
      "name": "totalSupply",
      "outputs": [
        {
          "internalType": "uint256",
          "name": "",
          "type": "uint256"
        }
      ],
      "stateMutability": "view",
      "type": "function"
    },
    {
      "inputs": [
        {
          "internalType": "address",
          "name": "to",
          "type": "address"
        },
        {
          "internalType": "uint256",
          "name": "value",
          "type": "uint256"
        }
      ],
      "name": "transfer",
      "outputs": [
        {
          "internalType": "bool",
          "name": "",
          "type": "bool"
        }
      ],
      "stateMutability": "nonpayable",
      "type": "function"
    },
    {
      "inputs": [
        {
          "internalType": "address",
          "name": "from",
          "type": "address"
        },
        {
          "internalType": "address",
          "name": "to",
          "type": "address"
        },
        {
          "internalType": "uint256",
          "name": "value",
          "type": "uint256"
        }
      ],
      "name": "transferFrom",
      "outputs": [
        {
          "internalType": "bool",
          "name": "",
          "type": "bool"
        }
      ],
      "stateMutability": "nonpayable",
      "type": "function"
    }
  ],
  "bytecode": "0x6101806040523480156200001257600080fd5b506040518060400160405280600781526020016628902a37b5b2b760c91b81525080604051806040016040528060018152602001603160f81b8152506040518060400160405280600781526020016628902a37b5b2b760c91b815250604051806040016040528060018152602001605160f81b81525081600390816200009991906200029a565b506004620000a882826200029a565b50620000ba915083905060056200016e565b61012052620000cb8160066200016e565b61014052815160208084019190912060e052815190820120610100524660a0526200015960e05161010051604080517f8b73c3c69bb8fe3d512ecc4cf759cc79239f7b179b0ffacaa9a75d522b39400f60208201529081019290925260608201524660808201523060a082015260009060c00160405160208183030381529060405280519060200120905090565b60805250503060c052503361016052620003dc565b60006020835110156200018e576200018683620001a7565b9050620001a1565b816200019b84826200029a565b5060ff90505b92915050565b600080829050601f81511115620001de578260405163305a27a960e01b8152600401620001d5919062000366565b60405180910390fd5b8051620001eb82620003b7565b179392505050565b634e487b7160e01b600052604160045260246000fd5b600181811c908216806200021e57607f821691505b6020821081036200023f57634e487b7160e01b600052602260045260246000fd5b50919050565b601f82111562000295576000816000526020600020601f850160051c81016020861015620002705750805b601f850160051c820191505b8181101562000291578281556001016200027c565b5050505b505050565b81516001600160401b03811115620002b657620002b6620001f3565b620002ce81620002c7845462000209565b8462000245565b602080601f831160018114620003065760008415620002ed5750858301515b600019600386901b1c1916600185901b17855562000291565b600085815260208120601f198616915b82811015620003375788860151825594840194600190910190840162000316565b5085821015620003565787850151600019600388901b60f8161c191681555b5050505050600190811b01905550565b60006020808352835180602085015260005b81811015620003965785810183015185820160400152820162000378565b506000604082860101526040601f19601f8301168501019250505092915050565b805160208083015191908110156200023f5760001960209190910360031b1b16919050565b60805160a05160c05160e051610100516101205161014051610160516110f362000449600039600081816101e101526103e70152600061088f01526000610862015260006107d4015260006107ac01526000610707015260006107310152600061075b01526110f36000f3fe608060405234801561001057600080fd5b50600436106100db5760003560e01c806306fdde03146100e0578063095ea7b3146100fe57806318160ddd1461012157806323b872dd14610133578063313ce567146101465780633644e5151461015557806342966c681461015d57806370a082311461017257806379cc67901461019b5780637ecebe00146101ae57806384b0196e146101c15780638da5cb5b146101dc57806395d89b41146102105780639a49090e14610218578063a9059cbb1461022b578063d505accf1461023e578063dd62ed3e14610251575b600080fd5b6100e8610264565b6040516100f59190610e08565b60405180910390f35b61011161010c366004610e3e565b6102f6565b60405190151581526020016100f5565b6002545b6040519081526020016100f5565b610111610141366004610e68565b610310565b604051601281526020016100f5565b610125610334565b61017061016b366004610ea4565b610343565b005b610125610180366004610ebd565b6001600160a01b031660009081526020819052604090205490565b6101706101a9366004610e3e565b610350565b6101256101bc366004610ebd565b610369565b6101c9610387565b6040516100f59796959493929190610ed8565b6102037f000000000000000000000000000000000000000000000000000000000000000081565b6040516100f59190610f71565b6100e86103cd565b610170610226366004610e3e565b6103dc565b610111610239366004610e3e565b6104c3565b61017061024c366004610f85565b6104d1565b61012561025f366004610ff8565b61060b565b6060600380546102739061102b565b80601f016020809104026020016040519081016040528092919081815260200182805461029f9061102b565b80156102ec5780601f106102c1576101008083540402835291602001916102ec565b820191906000526020600020905b8154815290600101906020018083116102cf57829003601f168201915b5050505050905090565b600033610304818585610636565b60019150505b92915050565b60003361031e858285610648565b61032985858561069b565b506001949350505050565b600061033e6106fa565b905090565b61034d3382610825565b50565b61035b823383610648565b6103658282610825565b5050565b6001600160a01b03811660009081526007602052604081205461030a565b60006060806000806000606061039b61085b565b6103a3610888565b60408051600080825260208201909252600f60f81b9b939a50919850469750309650945092509050565b6060600480546102739061102b565b336001600160a01b037f000000000000000000000000000000000000000000000000000000000000000016146104585760405162461bcd60e51b815260206004820152601c60248201527b289d1031b0b63632b91034b9903737ba10289031b7b73a3930b1ba1760211b60448201526064015b60405180910390fd5b6a0424e8a4eaca5ed740000061046d60025490565b106104b95760405162461bcd60e51b815260206004820152601c60248201527b144e881b585e081cdd5c1c1b1e48185b1c9958591e481b5a5b9d195960221b604482015260640161044f565b61036582826108b5565b60003361030481858561069b565b834211156104f55760405163313c898160e11b81526004810185905260240161044f565b60007f6e71edae12b1b97f4d1f60370fef10105fa2faae0126114a169c64845d6126c98888886105428c6001600160a01b0316600090815260076020526040902080546001810190915590565b6040805160208101969096526001600160a01b0394851690860152929091166060840152608083015260a082015260c0810186905260e001604051602081830303815290604052805190602001209050600061059d826108eb565b905060006105ad82878787610918565b9050896001600160a01b0316816001600160a01b0316146105f4576040516325c0072360e11b81526001600160a01b0380831660048301528b16602482015260440161044f565b6105ff8a8a8a610636565b50505050505050505050565b6001600160a01b03918216600090815260016020908152604080832093909416825291909152205490565b6106438383836001610946565b505050565b6000610654848461060b565b90506000198114610695578181101561068657828183604051637dc7a0d960e11b815260040161044f93929190611065565b61069584848484036000610946565b50505050565b6001600160a01b0383166106c5576000604051634b637e8f60e11b815260040161044f9190610f71565b6001600160a01b0382166106ef57600060405163ec442f0560e01b815260040161044f9190610f71565b610643838383610a1b565b6000306001600160a01b037f00000000000000000000000000000000000000000000000000000000000000001614801561075357507f000000000000000000000000000000000000000000000000000000000000000046145b1561077d57507f000000000000000000000000000000000000000000000000000000000000000090565b61033e604080517f8b73c3c69bb8fe3d512ecc4cf759cc79239f7b179b0ffacaa9a75d522b39400f60208201527f0000000000000000000000000000000000000000000000000000000000000000918101919091527f000000000000000000000000000000000000000000000000000000000000000060608201524660808201523060a082015260009060c00160405160208183030381529060405280519060200120905090565b6001600160a01b03821661084f576000604051634b637e8f60e11b815260040161044f9190610f71565b61036582600083610a1b565b606061033e7f00000000000000000000000000000000000000000000000000000000000000006005610b32565b606061033e7f00000000000000000000000000000000000000000000000000000000000000006006610b32565b6001600160a01b0382166108df57600060405163ec442f0560e01b815260040161044f9190610f71565b61036560008383610a1b565b600061030a6108f86106fa565b8360405161190160f01b8152600281019290925260228201526042902090565b60008060008061092a88888888610bdd565b92509250925061093a8282610ca2565b50909695505050505050565b6001600160a01b03841661097057600060405163e602df0560e01b815260040161044f9190610f71565b6001600160a01b03831661099a576000604051634a1406b160e11b815260040161044f9190610f71565b6001600160a01b038085166000908152600160209081526040808320938716835292905220829055801561069557826001600160a01b0316846001600160a01b03167f8c5be1e5ebec7d5bd14f71427d1e84f3dd0314c0f7b2291e5b200ac8c7c3b92584604051610a0d91815260200190565b60405180910390a350505050565b6001600160a01b038316610a46578060026000828254610a3b9190611086565b90915550610aa59050565b6001600160a01b03831660009081526020819052604090205481811015610a865783818360405163391434e360e21b815260040161044f93929190611065565b6001600160a01b03841660009081526020819052604090209082900390555b6001600160a01b038216610ac157600280548290039055610ae0565b6001600160a01b03821660009081526020819052604090208054820190555b816001600160a01b0316836001600160a01b03167fddf252ad1be2c89b69c2b068fc378daa952ba7f163c4a11628f55a4df523b3ef83604051610b2591815260200190565b60405180910390a3505050565b606060ff8314610b4c57610b4583610d5b565b905061030a565b818054610b589061102b565b80601f0160208091040260200160405190810160405280929190818152602001828054610b849061102b565b8015610bd15780601f10610ba657610100808354040283529160200191610bd1565b820191906000526020600020905b815481529060010190602001808311610bb457829003601f168201915b5050505050905061030a565b600080806fa2a8918ca85bafe22016d0b997e4df60600160ff1b03841115610c0e5750600091506003905082610c98565b604080516000808252602082018084528a905260ff891692820192909252606081018790526080810186905260019060a0016020604051602081039080840390855afa158015610c62573d6000803e3d6000fd5b5050604051601f1901519150506001600160a01b038116610c8e57506000925060019150829050610c98565b9250600091508190505b9450945094915050565b6000826003811115610cb657610cb66110a7565b03610cbf575050565b6001826003811115610cd357610cd36110a7565b03610cf15760405163f645eedf60e01b815260040160405180910390fd5b6002826003811115610d0557610d056110a7565b03610d265760405163fce698f760e01b81526004810182905260240161044f565b6003826003811115610d3a57610d3a6110a7565b03610365576040516335e2f38360e21b81526004810182905260240161044f565b60606000610d6883610d9a565b604080516020808252818301909252919250600091906020820181803683375050509182525060208101929092525090565b600060ff8216601f81111561030a57604051632cd44ac360e21b815260040160405180910390fd5b6000815180845260005b81811015610de857602081850181015186830182015201610dcc565b506000602082860101526020601f19601f83011685010191505092915050565b602081526000610e1b6020830184610dc2565b9392505050565b80356001600160a01b0381168114610e3957600080fd5b919050565b60008060408385031215610e5157600080fd5b610e5a83610e22565b946020939093013593505050565b600080600060608486031215610e7d57600080fd5b610e8684610e22565b9250610e9460208501610e22565b9150604084013590509250925092565b600060208284031215610eb657600080fd5b5035919050565b600060208284031215610ecf57600080fd5b610e1b82610e22565b60ff60f81b881681526000602060e06020840152610ef960e084018a610dc2565b8381036040850152610f0b818a610dc2565b606085018990526001600160a01b038816608086015260a0850187905284810360c08601528551808252602080880193509091019060005b81811015610f5f57835183529284019291840191600101610f43565b50909c9b505050505050505050505050565b6001600160a01b0391909116815260200190565b600080600080600080600060e0888a031215610fa057600080fd5b610fa988610e22565b9650610fb760208901610e22565b95506040880135945060608801359350608088013560ff81168114610fdb57600080fd5b9699959850939692959460a0840135945060c09093013592915050565b6000806040838503121561100b57600080fd5b61101483610e22565b915061102260208401610e22565b90509250929050565b600181811c9082168061103f57607f821691505b60208210810361105f57634e487b7160e01b600052602260045260246000fd5b50919050565b6001600160a01b039390931683526020830191909152604082015260600190565b8082018082111561030a57634e487b7160e01b600052601160045260246000fd5b634e487b7160e01b600052602160045260246000fdfea2646970667358221220cfcc8e81a9938c9257e27c89e4777bcaf57970f38c174ceb4fed9f349f5ff1f864736f6c63430008170033",
  "linkReferences": {},
  "deployedLinkReferences": {}
}