{
  "_format": "hh-sol-artifact-1",
  "contractName": "TokenVault",
  "sourceName": "contracts/TokenValut.sol",
  "abi": [
    {
      "inputs": [
        {
          "internalType": "address",
          "name": "_tokenAddress",
          "type": "address"
        }
      ],
      "stateMutability": "nonpayable",
      "type": "constructor"
    },
    {
      "inputs": [
        {
          "internalType": "address",
          "name": "",
          "type": "address"
        }
      ],
      "name": "balances",
      "outputs": [
        {
          "internalType": "uint256",
          "name": "",
          "type": "uint256"
        }
      ],
      "stateMutability": "view",
      "type": "function"
    },
    {
      "inputs": [
        {
          "internalType": "uint256",
          "name": "_amount",
          "type": "uint256"
        }
      ],
      "name": "deposit",
      "outputs": [],
      "stateMutability": "nonpayable",
      "type": "function"
    },
    {
      "inputs": [],
      "name": "getContractTokenBalance",
      "outputs": [
        {
          "internalType": "uint256",
          "name": "",
          "type": "uint256"
        }
      ],
      "stateMutability": "view",
      "type": "function"
    },
    {
      "inputs": [
        {
          "internalType": "address",
          "name": "_user",
          "type": "address"
        }
      ],
      "name": "getUserTokenBalance",
      "outputs": [
        {
          "internalType": "uint256",
          "name": "",
          "type": "uint256"
        }
      ],
      "stateMutability": "view",
      "type": "function"
    },
    {
      "inputs": [],
      "name": "token",
      "outputs": [
        {
          "internalType": "contract IERC20",
          "name": "",
          "type": "address"
        }
      ],
      "stateMutability": "view",
      "type": "function"
    },
    {
      "inputs": [
        {
          "internalType": "uint256",
          "name": "_amount",
          "type": "uint256"
        }
      ],
      "name": "withdraw",
      "outputs": [],
      "stateMutability": "nonpayable",
      "type": "function"
    }
  ],
  "bytecode": "0x6080604052348015600e575f80fd5b50604051610573380380610573833981016040819052602b91604e565b5f80546001600160a01b0319166001600160a01b03929092169190911790556079565b5f60208284031215605d575f80fd5b81516001600160a01b03811681146072575f80fd5b9392505050565b6104ed806100865f395ff3fe608060405234801561000f575f80fd5b5060043610610060575f3560e01c806327e235e3146100645780632e1a7d4d14610096578063317d9453146100ab578063b6b55f25146100b3578063f5aec88c146100c6578063fc0c546a146100ee575b5f80fd5b610083610072366004610389565b60016020525f908152604090205481565b6040519081526020015b60405180910390f35b6100a96100a43660046103b6565b61010d565b005b61008361023d565b6100a96100c13660046103b6565b6102b1565b6100836100d4366004610389565b6001600160a01b03165f9081526001602052604090205490565b5f54610100906001600160a01b031681565b60405161008d91906103cd565b5f81116101355760405162461bcd60e51b815260040161012c906103e1565b60405180910390fd5b335f9081526001602052604090205481111561018a5760405162461bcd60e51b8152602060048201526014602482015273496e73756666696369656e742062616c616e636560601b604482015260640161012c565b335f90815260016020526040812080548392906101a890849061042c565b90915550505f5460405163a9059cbb60e01b8152336004820152602481018390526001600160a01b039091169063a9059cbb906044016020604051808303815f875af11580156101fa573d5f803e3d5ffd5b505050506040513d601f19601f8201168201806040525081019061021e9190610445565b61023a5760405162461bcd60e51b815260040161012c90610464565b50565b5f80546040516370a0823160e01b81526001600160a01b03909116906370a082319061026d9030906004016103cd565b602060405180830381865afa158015610288573d5f803e3d5ffd5b505050506040513d601f19601f820116820180604052508101906102ac919061048d565b905090565b5f81116102d05760405162461bcd60e51b815260040161012c906103e1565b5f546040516323b872dd60e01b8152336004820152306024820152604481018390526001600160a01b03909116906323b872dd906064016020604051808303815f875af1158015610323573d5f803e3d5ffd5b505050506040513d601f19601f820116820180604052508101906103479190610445565b6103635760405162461bcd60e51b815260040161012c90610464565b335f90815260016020526040812080548392906103819084906104a4565b909155505050565b5f60208284031215610399575f80fd5b81356001600160a01b03811681146103af575f80fd5b9392505050565b5f602082840312156103c6575f80fd5b5035919050565b6001600160a01b0391909116815260200190565b6020808252601d908201527f416d6f756e74206d7573742062652067726561746572207468616e2030000000604082015260600190565b634e487b7160e01b5f52601160045260245ffd5b8181038181111561043f5761043f610418565b92915050565b5f60208284031215610455575f80fd5b815180151581146103af575f80fd5b6020808252600f908201526e151c985b9cd9995c8819985a5b1959608a1b604082015260600190565b5f6020828403121561049d575f80fd5b5051919050565b8082018082111561043f5761043f61041856fea26469706673582212202f321d69617e15b67243c2c138691b24a249e6866982f93832eef492af2ee8b164736f6c63430008190033",
  "linkReferences": {},
  "deployedLinkReferences": {}
}